{
  "contractName": "Supply",
  "abi": [
    {
      "inputs": [
        {
          "internalType": "uint256",
          "name": "ida",
          "type": "uint256"
        },
        {
          "internalType": "string",
          "name": "namea",
          "type": "string"
        },
        {
          "internalType": "string",
          "name": "categorya",
          "type": "string"
        },
        {
          "internalType": "string",
          "name": "descriptiona",
          "type": "string"
        },
        {
          "internalType": "string",
          "name": "suppliera",
          "type": "string"
        },
        {
          "internalType": "string",
          "name": "origina",
          "type": "string"
        },
        {
          "internalType": "string",
          "name": "productiondatea",
          "type": "string"
        },
        {
          "internalType": "string",
          "name": "certificatea",
          "type": "string"
        },
        {
          "internalType": "string",
          "name": "costa",
          "type": "string"
        },
        {
          "internalType": "string",
          "name": "quantitya",
          "type": "string"
        },
        {
          "internalType": "string",
          "name": "typea",
          "type": "string"
        }
      ],
      "name": "addmaterials",
      "outputs": [],
      "stateMutability": "nonpayable",
      "type": "function"
    },
    {
      "inputs": [
        {
          "internalType": "uint256",
          "name": "ida",
          "type": "uint256"
        },
        {
          "internalType": "string",
          "name": "namea",
          "type": "string"
        },
        {
          "internalType": "string",
          "name": "categorya",
          "type": "string"
        },
        {
          "internalType": "string",
          "name": "descriptiona",
          "type": "string"
        },
        {
          "internalType": "string",
          "name": "specificationa",
          "type": "string"
        },
        {
          "internalType": "string",
          "name": "unitofmeasurementa",
          "type": "string"
        },
        {
          "internalType": "string",
          "name": "manufacture_ida",
          "type": "string"
        },
        {
          "internalType": "string",
          "name": "typea",
          "type": "string"
        }
      ],
      "name": "addmproduct",
      "outputs": [],
      "stateMutability": "nonpayable",
      "type": "function"
    }
  ],
  "bytecode": "0x608060405234801561001057600080fd5b506109ca806100206000396000f3fe608060405234801561001057600080fd5b50600436106100365760003560e01c80631eccd30b1461003b57806334c9446414610057575b600080fd5b610055600480360381019061005091906105ad565b610073565b005b610071600480360381019061006c91906107b9565b61022e565b005b60006040518061016001604052808d81526020018c81526020018b81526020018a815260200189815260200188815260200187815260200186815260200185815260200184815260200183815250905060008190806001815401808255809150506001900390600052602060002090600b020160009091909190915060008201518160000155602082015181600101908051906020019061011592919061037a565b50604082015181600201908051906020019061013292919061037a565b50606082015181600301908051906020019061014f92919061037a565b50608082015181600401908051906020019061016c92919061037a565b5060a082015181600501908051906020019061018992919061037a565b5060c08201518160060190805190602001906101a692919061037a565b5060e08201518160070190805190602001906101c392919061037a565b506101008201518160080190805190602001906101e192919061037a565b506101208201518160090190805190602001906101ff92919061037a565b5061014082015181600a01908051906020019061021d92919061037a565b505050505050505050505050505050565b60006040518061010001604052808a815260200189815260200188815260200187815260200186815260200185815260200184815260200183815250905060018190806001815401808255809150506001900390600052602060002090600802016000909190919091506000820151816000015560208201518160010190805190602001906102be92919061037a565b5060408201518160020190805190602001906102db92919061037a565b5060608201518160030190805190602001906102f892919061037a565b50608082015181600401908051906020019061031592919061037a565b5060a082015181600501908051906020019061033292919061037a565b5060c082015181600601908051906020019061034f92919061037a565b5060e082015181600701908051906020019061036c92919061037a565b505050505050505050505050565b82805461038690610962565b90600052602060002090601f0160209004810192826103a857600085556103ef565b82601f106103c157805160ff19168380011785556103ef565b828001600101855582156103ef579182015b828111156103ee5782518255916020019190600101906103d3565b5b5090506103fc9190610400565b5090565b5b80821115610419576000816000905550600101610401565b5090565b6000604051905090565b600080fd5b600080fd5b6000819050919050565b61044481610431565b811461044f57600080fd5b50565b6000813590506104618161043b565b92915050565b600080fd5b600080fd5b6000601f19601f8301169050919050565b7f4e487b7100000000000000000000000000000000000000000000000000000000600052604160045260246000fd5b6104ba82610471565b810181811067ffffffffffffffff821117156104d9576104d8610482565b5b80604052505050565b60006104ec61041d565b90506104f882826104b1565b919050565b600067ffffffffffffffff82111561051857610517610482565b5b61052182610471565b9050602081019050919050565b82818337600083830152505050565b600061055061054b846104fd565b6104e2565b90508281526020810184848401111561056c5761056b61046c565b5b61057784828561052e565b509392505050565b600082601f83011261059457610593610467565b5b81356105a484826020860161053d565b91505092915050565b60008060008060008060008060008060006101608c8e0312156105d3576105d2610427565b5b60006105e18e828f01610452565b9b505060208c013567ffffffffffffffff8111156106025761060161042c565b5b61060e8e828f0161057f565b9a505060408c013567ffffffffffffffff81111561062f5761062e61042c565b5b61063b8e828f0161057f565b99505060608c013567ffffffffffffffff81111561065c5761065b61042c565b5b6106688e828f0161057f565b98505060808c013567ffffffffffffffff8111156106895761068861042c565b5b6106958e828f0161057f565b97505060a08c013567ffffffffffffffff8111156106b6576106b561042c565b5b6106c28e828f0161057f565b96505060c08c013567ffffffffffffffff8111156106e3576106e261042c565b5b6106ef8e828f0161057f565b95505060e08c013567ffffffffffffffff8111156107105761070f61042c565b5b61071c8e828f0161057f565b9450506101008c013567ffffffffffffffff81111561073e5761073d61042c565b5b61074a8e828f0161057f565b9350506101208c013567ffffffffffffffff81111561076c5761076b61042c565b5b6107788e828f0161057f565b9250506101408c013567ffffffffffffffff81111561079a5761079961042c565b5b6107a68e828f0161057f565b9150509295989b509295989b9093969950565b600080600080600080600080610100898b0312156107da576107d9610427565b5b60006107e88b828c01610452565b985050602089013567ffffffffffffffff8111156108095761080861042c565b5b6108158b828c0161057f565b975050604089013567ffffffffffffffff8111156108365761083561042c565b5b6108428b828c0161057f565b965050606089013567ffffffffffffffff8111156108635761086261042c565b5b61086f8b828c0161057f565b955050608089013567ffffffffffffffff8111156108905761088f61042c565b5b61089c8b828c0161057f565b94505060a089013567ffffffffffffffff8111156108bd576108bc61042c565b5b6108c98b828c0161057f565b93505060c089013567ffffffffffffffff8111156108ea576108e961042c565b5b6108f68b828c0161057f565b92505060e089013567ffffffffffffffff8111156109175761091661042c565b5b6109238b828c0161057f565b9150509295985092959890939650565b7f4e487b7100000000000000000000000000000000000000000000000000000000600052602260045260246000fd5b6000600282049050600182168061097a57607f821691505b6020821081141561098e5761098d610933565b5b5091905056fea2646970667358221220cc887673245638a259be1254c4044a04d16aa4a305d6d7dcb470717057a574de64736f6c634300080c0033",
  "immutableReferences": {},
  "source": "pragma solidity ^0.8.12;\n\ncontract Supply{\n\nstruct material{\n         uint ida;\n\t     string name;\n\t     string category;\n\t     string description;\n\t     string supplier;\n\t     string origin;\n\t     string productiondate;\n\t     string certificate;\n\t     string cost;\n\t     string quantity;\n\t     string types;\n  }\n\nstruct product{\n        uint id;\n        string name;\n        string category;\n        string description;\n        string specification;\n        string unitofmeasurement;\n        string manufacture_id;\n        string types;\n    }\n\n\nmaterial [] materials;\n\nfunction addmaterials(\n                uint ida,\n                string memory namea,\n                string memory categorya,\n                string memory descriptiona,\n                string memory suppliera,\n                string memory origina,\n                string memory productiondatea,\n                string memory certificatea,\n                string memory costa,\n                string memory quantitya,\n                string memory typea\n            )\npublic{\n\tmaterial memory e = material(\n                            ida,\n                            namea,\n                            categorya,\n                            descriptiona,\n                            suppliera,\n                            origina,\n                            productiondatea,\n                            certificatea,\n                            costa,\n                            quantitya,\n                            typea\n                );\n\tmaterials.push(e);\n}\n\nproduct [] products;\n\nfunction addmproduct(\n            uint ida,\n            string memory namea,\n            string memory categorya,\n            string memory descriptiona,\n            string memory specificationa,\n            string memory unitofmeasurementa,\n            string memory manufacture_ida,\n            string memory typea\n            )\npublic{\n\tproduct memory c=product(\n\t        ida,\n\t        namea,\n\t        categorya,\n\t        descriptiona,\n\t        specificationa,\n\t        unitofmeasurementa,\n\t        manufacture_ida,\n\t        typea\n\t);\n\tproducts.push(c);\n\n} \n\n\n}\n",
  "sourcePath": "D:\\sam1\\myapp\\static\\blocks\\contracts\\supply.sol",
  "compiler": {
    "name": "solc",
    "version": "0.8.12+commit.f00d7308.Emscripten.clang"
  },
  "schemaVersion": "3.4.16",
  "updatedAt": "2024-04-14T11:24:25.730Z",
  "networkType": "ethereum",
  "devdoc": {
    "kind": "dev",
    "methods": {},
    "version": 1
  },
  "userdoc": {
    "kind": "user",
    "methods": {},
    "version": 1
  }
}